:100000000C942A000C943C000C943C000C943C0092
:100010000C943C000C943C000C943C000C943C0070
:100020000C943C000C943C000C943C000C943C0060
:100030000C943C000C943C000C943C000C943C0050
:100040000C943C000C943C000C943C000C943C0040
:100050000C943C0011241FBECFE5D8E0DEBFCDBF1D
:1000600020E0A0E6B0E001C01D92A236B207E1F7A1
:100070000E9419010C949A020C94000041111CC0BA
:10008000813059F028F0823069F0833081F0089592
:100090008AB3609568236ABB089587B36095682327
:1000A00067BB089584B36095682364BB089581B3EA
:1000B0006095682361BB08954F3FB9F4813051F0DA
:1000C00028F0823059F0833069F008958AB3682BA4
:1000D0006ABB089587B3682B67BB089584B3682B08
:1000E00064BB089581B3682B61BB0895813071F0C2
:1000F00028F0823099F08330C9F008958BB3962FA1
:10010000909589234623482B4BBB089588B3962F9F
:10011000909589234623482B48BB089585B3962F95
:10012000909589234623482B45BB089582B3962F8B
:10013000909589234623482B42BB0895813049F08E
:1001400028F0823049F0833051F00CC089B3682325
:100150000AC086B3682307C083B3682304C080B392
:10016000682301C06FEF81E0611101C080E08195DB
:100170000895813061F028F0823079F0833099F071
:1001800008954FEF60E181E00E943E0008954FEF37
:1001900060E281E00E943E0008954FEF60E481E05C
:1001A0000E943E0008954FEF60E881E00E943E000B
:1001B0000895813061F028F0823079F0833099F031
:1001C00008954FEF60E181E00E94760008954FEFBF
:1001D00060E281E00E94760008954FEF60E481E0E4
:1001E0000E94760008954FEF60E881E00E9476005B
:1001F0000895813061F028F0823079F0833099F0F1
:10020000089540E060E181E00E947600089540E0BA
:1002100060E281E00E947600089540E060E481E0C1
:100220000E947600089540E060E881E00E94760038
:10023000089580E00E94B90080E00E946E01EE24E3
:10024000E39400E020E042E060E080E00E945A0297
:100250000E946E02C1E080E00E94A2018230D1F5CE
:10026000CF5FC9F380E00E94D9008AEA90E00E9443
:100270007A0280E00E94A201823009F0C1508AEA2D
:1002800090E00E947A0280E00E94A201823009F48C
:10029000CF5F8AEA90E00E947A0280E00E94A20189
:1002A000823009F4CF5F8AEA90E00E947A0280E00F
:1002B0000E94A201823009F4CF5F8AEA90E00E9496
:1002C0007A0280E00E94A201823009F4CF5FC1115E
:1002D000C9CFC1CF80E00E94F900BDCF813089F045
:1002E00028F08230C9F0833011F1089540E060E1D8
:1002F00082E00E943E004FEF60E182E00E947600C3
:10030000089540E064E081E00E943E004FEF64E029
:1003100081E00E947600089540E064E080E00E9461
:100320003E004FEF64E080E00E947600089540E0D8
:1003300068E080E00E943E004FEF68E080E00E94AD
:1003400076000895CF93DF931F92CDB7DEB781304B
:1003500071F138F0823009F450C0833009F471C073
:1003600094C060E182E00E949E00898389818111AE
:100370000FC08EE190E00E947A0260E182E00E946C
:100380009E0089838981882309F481C080E08EC022
:100390008EE190E00E947A0260E182E00E949E007D
:1003A00089838981882309F474C080E07FC064E078
:1003B00081E00E949E008983898181110FC08EE1B6
:1003C00090E00E947A0264E081E00E949E008983AE
:1003D0008981882309F45FC080E068C08EE190E0E5
:1003E0000E947A0264E081E00E949E0089838981F4
:1003F000882309F452C080E059C064E080E00E9484
:100400009E008983898181110EC08EE190E00E9457
:100410007A0264E080E00E949E00898389818823BB
:10042000F1F180E043C08EE190E00E947A0264E046
:1004300080E00E949E0089838981882391F180E079
:1004400035C068E080E00E949E0089838981811127
:100450000EC08EE190E00E947A0268E080E00E9487
:100460009E00898389818823F1F080E01FC08EE19E
:1004700090E00E947A0268E080E00E949E008983FA
:100480008981882391F080E011C08FEF0FC082E056
:100490000DC082E00BC082E009C082E007C082E0AC
:1004A00005C082E003C082E001C082E00F90DF91CE
:1004B000CF910895EF920F9393B7892B83BF83B7A2
:1004C000682B63BF409361004093600022BF0CBF64
:1004D00089B7E82AE9BE0F91EF90089593B780910C
:1004E0006100892B83BF089583B7887F83BF83B75B
:1004F00083BF0895CF93DF93EC010E946E02209793
:10050000A1F040E050E098E192BF24E030E008B66E
:1005100000FEFDCF88B7816088BF21503109B9F74F
:100520004F5F5F4FC417D50779F70E947402DF91C0
:08053000CF910895F894FFCF6C
:00000001FF
