:100000000C942A000C943C000C943C000C943C0092
:100010000C943C000C943C000C943C000C943C0070
:100020000C943C000C943C000C943C000C94370164
:100030000C943C000C943C000C943C000C943C0050
:100040000C943C000C943C000C943C000C943C0040
:100050000C943C0011241FBECFE5D8E0DEBFCDBF1D
:1000600020E0A0E6B0E001C01D92A037B207E1F7A2
:100070000E94BC010C94A4040C940000882319F085
:10008000813089F008954FEF64E083E00E94B7006B
:100090004FEF68E083E00E94B7004FEF60E183E03C
:1000A0000E94B70008954FEF60E483E00E94B7001C
:1000B0004FEF60E883E00E94B7004FEF60E283E01B
:1000C0000E94B7000895811127C0613079F018F0BF
:1000D0006230B9F0089540E064E083E00E94EF00F0
:1000E00040E068E083E00E94EF0008954FEF64E095
:1000F00083E00E94EF0040E068E083E00E94EF00B0
:10010000089540E064E083E00E94EF004FEF68E074
:1001100083E00E94EF000895613079F018F06230BA
:10012000B9F0089540E060E483E00E94EF0040E011
:1001300060E883E00E94EF0008954FEF60E483E001
:100140000E94EF0040E060E883E00E94EF00089525
:1001500040E060E483E00E94EF004FEF60E883E05E
:100160000E94EF00089564E60E942C020895411158
:100170001CC0813059F028F0823069F0833081F062
:1001800008958AB3609568236ABB089587B3609524
:10019000682367BB089584B36095682364BB0895A2
:1001A00081B36095682361BB08954F3FB9F48130F6
:1001B00051F028F0823059F0833069F008958AB305
:1001C000682B6ABB089587B3682B67BB089584B317
:1001D000682B64BB089581B3682B61BB089581309F
:1001E00071F028F0823099F08330C9F008958BB314
:1001F000962F909589234623482B4BBB089588B3AF
:10020000962F909589234623482B48BB089585B3A4
:10021000962F909589234623482B45BB089582B39A
:10022000962F909589234623482B42BB0895813011
:1002300061F028F0823079F0833099F008954FEF23
:1002400060E181E00E94B70008954FEF60E281E035
:100250000E94B70008954FEF60E481E00E94B7006C
:1002600008954FEF60E881E00E94B70008951F9263
:100270000F920FB60F921124CF92DF92EF92FF925E
:100280002F933F934F935F936F937F938F939F939E
:10029000AF93BF93EF93FF9360916E00C0906600A1
:1002A000D0906700E0906800F090690070E080E016
:1002B00090E00E94F403A70196010E944C03811173
:1002C0000BC040E060E183E00E94EF0040E060E2AC
:1002D00083E00E94EF0022C0609166007091670089
:1002E000809168009091690020E030E048EC52E491
:1002F0000E944C03811112C0109266001092670098
:1003000010926800109269004FEF60E183E00E9454
:10031000EF004FEF60E283E00E94EF006091660023
:1003200070916700809168009091690020E030E052
:1003300040E85FE30E94E00260936600709367000C
:10034000809368009093690080916F0082BFFF9155
:10035000EF91BF91AF919F918F917F916F915F913D
:100360004F913F912F91FF90EF90DF90CF900F90A2
:100370000FBE0F901F901895CF92EF920F93CF93CF
:10038000789480E00E94170180E00E943E0081E0A6
:100390000E943E00C12CE12C00E020E042E060E041
:1003A00080E00E949E0261E080E00E94630061E0C4
:1003B00081E00E946300C0E08C2F0E94B30088EEB1
:1003C00093E00E94BF02CC5EC436B1F78C2F0E942E
:1003D000B30088EE93E00E94BF02C451B9F760E019
:1003E00080E00E94630060E081E00E94630088EE8C
:1003F00093E00E94BF0261E080E00E94630060E041
:1004000081E00E9463008EE10E94B30084EF91E0DE
:100410000E94BF0280E090E0CF910F91EF90CF90CB
:100420000895EF920F9393B7906893BF93B7892B7A
:1004300083BF83B7682B63BF4093650022BF0CBFA7
:1004400089B7E82AE9BE0F91EF90089593B780919C
:100450006500892B83BF0895EF920F93843621F0B6
:10046000811103C081E001C083E680936E00643691
:1004700089F0683CE1F0623331F58AE097EDA3EA58
:10048000BCE38093610090936200A0936300B093FB
:10049000640019C08AE097EDA3E2BCE38093610099
:1004A00090936200A0936300B09364000CC08AE054
:1004B00097EDA3EABBE38093610090936200A09361
:1004C0006300B0936400609161007091620080915C
:1004D00063009091640020E030E048EC52E40E9418
:1004E000510360936A0070936B0080936C0090934B
:1004F0006D0060916A0070916B0080916C0090912A
:100500006D002DEB37E346E055E30E9451030E9456
:10051000C303619560936F0020916F00EE24E39414
:1005200000E042E060E080E00E9411020E942602AA
:1005300080916F0082BF0F91EF900895CF92EF925C
:100540000F9395B5892B85BD85B5682B65BD409307
:10055000600024BD03BD89B7C82AC9BE82B5E82A98
:10056000E2BC0F91EF90CF90089595B58091600017
:10057000892B85BD089585B5887F85BD0895CF9366
:10058000DF93EC010E94B5022097A1F040E050E01B
:1005900090E394BD28E030E008B606FEFDCF88B7B2
:1005A000806488BF21503109B9F74F5F5F4FC4178E
:1005B000D50779F70E94BB02DF91CF91089550587B
:1005C000BB27AA270E94F7020C946A040E945C04CD
:1005D00038F00E94630420F039F49F3F19F426F4A8
:1005E0000C9459040EF4E095E7FB0C945304E92FA6
:1005F0000E947B0458F3BA176207730784079507B4
:1006000020F079F4A6F50C949D040EF4E0950B2EE1
:10061000BA2FA02D0B01B90190010C01CA01A00154
:100620001124FF27591B99F0593F50F4503E68F1AF
:100630001A16F040A22F232F342F4427585FF3CFF0
:10064000469537952795A795F0405395C9F77EF4C1
:100650001F16BA0B620B730B840BBAF09150A1F00A
:10066000FF0FBB1F661F771F881FC2F70EC0BA0F90
:10067000621F731F841F48F4879577956795B79518
:10068000F7959E3F08F0B0CF9395880F08F0992713
:10069000EE0F9795879508950E942F0408F481E046
:1006A00008950E9465030C946A040E94630458F044
:1006B0000E945C0440F029F45F3F29F00C9453043D
:1006C00051110C949E040C9459040E947B0468F30D
:1006D0009923B1F3552391F3951B550BBB27AA27FB
:1006E00062177307840738F09F5F5F4F220F331F35
:1006F000441FAA1FA9F335D00E2E3AF0E0E832D0FD
:1007000091505040E695001CCAF72BD0FE2F29D0FF
:10071000660F771F881FBB1F261737074807AB07D1
:10072000B0E809F0BB0B802DBF01FF2793585F4F46
:100730003AF09E3F510578F00C9453040C949E04BB
:100740005F3FE4F3983ED4F3869577956795B79528
:10075000F7959F5FC9F7880F911D9695879597F933
:100760000895E1E0660F771F881FBB1F62177307AC
:100770008407BA0720F0621B730B840BBA0BEE1FC1
:1007800088F7E09508950E94830488F09F5798F0B9
:10079000B92F9927B751B0F0E1F0660F771F881F86
:1007A000991F1AF0BA95C9F714C0B13091F00E94A0
:1007B0009D04B1E008950C949D04672F782F88273D
:1007C000B85F39F0B93FCCF3869577956795B395C7
:1007D000D9F73EF490958095709561957F4F8F4F36
:1007E0009F4F0895E89409C097FB3EF4909580953B
:1007F000709561957F4F8F4F9F4F9923A9F0F92FE7
:1008000096E9BB279395F695879577956795B79564
:10081000F111F8CFFAF4BB0F11F460FF1BC06F5F4A
:100820007F4F8F4F9F4F16C0882311F096E911C05C
:10083000772321F09EE8872F762F05C0662371F07D
:1008400096E8862F70E060E02AF09A95660F771F91
:10085000881FDAF7880F9695879597F90895990F6D
:100860000008550FAA0BE0E8FEEF16161706E8077A
:10087000F907C0F012161306E407F50798F0621B9B
:10088000730B840B950B39F40A2661F0232B242B70
:10089000252B21F408950A2609F4A140A6958FEF8F
:1008A000811D811D089597F99F6780E870E060E0E1
:1008B00008959FEF80EC089500240A9416161706F9
:1008C00018060906089500240A9412161306140641
:1008D00005060895092E0394000C11F4882352F0A4
:1008E000BB0F40F4BF2B11F460FF04C06F5F7F4F5C
:1008F0008F4F9F4F089557FD9058440F551F59F043
:100900005F3F71F04795880F97FB991F61F09F3FFC
:1009100079F087950895121613061406551FF2CF25
:100920004695F1DF08C0161617061806991FF1CF75
:1009300086957105610508940895E894BB2766279C
:0C0940007727CB0197F90895F894FFCFBA
:00000001FF
