S01700004750494F5F52455131305F524551392E73726563B6
S11300000C942A000C943C000C943C000C943C008E
S11300100C943C000C943C000C943C000C943C006C
S11300200C943C000C943C000C943C000C943C005C
S11300300C943C000C943C000C943C000C943C004C
S11300400C943C000C943C000C943C000C943C003C
S11300500C943C0011241FBECFE5D8E0DEBFCDBF19
S113006020E0A0E6B0E001C01D92A336B207E1F79C
S11300700E942F010C9486010C94000041111CC0B5
S1130080813059F028F0823069F0833081F008958E
S11300908AB3609568236ABB089587B36095682323
S11300A067BB089584B36095682364BB089581B3E6
S11300B06095682361BB08954F3FB9F4813051F0D6
S11300C028F0823059F0833069F008958AB3682BA0
S11300D06ABB089587B3682B67BB089584B3682B04
S11300E064BB089581B3682B61BB0895813071F0BE
S11300F028F0823099F08330C9F008958BB3962F9D
S1130100909589234623482B4BBB089588B3962F9B
S1130110909589234623482B48BB089585B3962F91
S1130120909589234623482B45BB089582B3962F87
S1130130909589234623482B42BB0895813061F072
S113014028F0823079F0833099F008954FEF60E120
S113015081E00E943E0008954FEF60E281E00E943A
S11301603E0008954FEF60E481E00E943E00089550
S11301704FEF60E881E00E943E000895813061F015
S113018028F0823079F0833099F008954FEF60E1E0
S113019081E00E94760008954FEF60E281E00E94C2
S11301A0760008954FEF60E481E00E9476000895A0
S11301B04FEF60E881E00E9476000895813061F09D
S11301C028F0823079F0833099F0089540E060E1BE
S11301D081E00E947600089540E060E281E00E94A0
S11301E07600089540E060E481E00E94760008957E
S11301F040E060E881E00E9476000895809160000C
S1130200813091F018F08230E9F0089582E00E9484
S1130210DE0081E00E94BE0088EE93E00E94660149
S113022081E080936000089581E00E94DE0083E015
S11302300E94BE0088EE93E00E94660182E08093F3
S11302406000089583E00E94DE0082E00E94BE0008
S113025088EE93E00E94660110926000089581E0A8
S11302600E949E0082E00E949E0083E00E949E0005
S1130270EE24E39400E020E042E060E080E00E94AD
S113028046010E945A010E94FE00FDCFEF920F9397
S113029093B7892B83BF83B7682B63BF40936200F6
S11302A04093610022BF0CBF89B7E82AE9BE0F91D1
S11302B0EF90089593B780916200892B83BF0895CE
S11302C083B7887F83BF83B783BF0895CF93DF93BA
S11302D0EC010E945A012097A1F040E050E098E11F
S11302E092BF24E030E008B600FEFDCF88B78160FD
S11302F088BF21503109B9F74F5F5F4FC417D50745
S113030079F70E946001DF91CF910895F894FFCFAF
S9030000FC
