:100000000C942A000C943C000C943C000C943C0092
:100010000C943C000C943C000C943C000C943C0070
:100020000C943C000C943C000C943C000C94AB02EF
:100030000C943C000C943C000C943C000C943C0050
:100040000C943C000C943C000C943C000C943C0040
:100050000C943C0011241FBECFE5D8E0DEBFCDBF1D
:1000600020E0A0E6B0E001C01D92A736B207E1F79C
:100070000E9419010C94F8020C94000041111CC05C
:10008000813059F028F0823069F0833081F0089592
:100090008AB3609568236ABB089587B36095682327
:1000A00067BB089584B36095682364BB089581B3EA
:1000B0006095682361BB08954F3FB9F4813051F0DA
:1000C00028F0823059F0833069F008958AB3682BA4
:1000D0006ABB089587B3682B67BB089584B3682B08
:1000E00064BB089581B3682B61BB0895813071F0C2
:1000F00028F0823099F08330C9F008958BB3962FA1
:10010000909589234623482B4BBB089588B3962F9F
:10011000909589234623482B48BB089585B3962F95
:10012000909589234623482B45BB089582B3962F8B
:10013000909589234623482B42BB0895813049F08E
:1001400028F0823049F0833051F00CC089B3682325
:100150000AC086B3682307C083B3682304C080B392
:10016000682301C06FEF81E0611101C080E08195DB
:100170000895813061F028F0823079F0833099F071
:1001800008954FEF60E181E00E943E0008954FEF37
:1001900060E281E00E943E0008954FEF60E481E05C
:1001A0000E943E0008954FEF60E881E00E943E000B
:1001B0000895813061F028F0823079F0833099F031
:1001C00008954FEF60E181E00E94760008954FEFBF
:1001D00060E281E00E94760008954FEF60E481E0E4
:1001E0000E94760008954FEF60E881E00E9476005B
:1001F0000895813061F028F0823079F0833099F0F1
:10020000089540E060E181E00E947600089540E0BA
:1002100060E281E00E947600089540E060E481E0C1
:100220000E947600089540E060E881E00E94760038
:10023000089580E00E94B90080E00E945601EE24FB
:10024000E39400E026E042E060E080E00E9491025A
:100250000E94A502789480E00E948A018093660043
:1002600080E00E94D900809166008230D9F48091AC
:1002700065008F5F8093650010C08091650081509C
:100280008093650080916400853038F480E00E949E
:10029000D900809164008530C8F380916500811198
:1002A000ECCFD9CF80E00E94F900D5CF813089F022
:1002B00028F08230C9F0833011F1089540E060E108
:1002C00082E00E943E004FEF60E182E00E947600F3
:1002D000089540E064E081E00E943E004FEF64E05A
:1002E00081E00E947600089540E064E080E00E9492
:1002F0003E004FEF64E080E00E947600089540E009
:1003000068E080E00E943E004FEF68E080E00E94DD
:1003100076000895CF93DF931F92CDB7DEB781307B
:1003200091F138F0823009F458C0833009F47EC06E
:10033000A5C060E182E00E949E00898389818111CD
:1003400011C06EE170E080E090E00E94530260E135
:1003500082E00E949E0089838981882309F490C0ED
:1003600080E09DC06EE170E080E090E00E9453026A
:1003700060E182E00E949E0089838981882309F4DC
:1003800081C080E08CC064E081E00E949E0089838F
:100390008981811111C06EE170E080E090E00E94DF
:1003A000530264E081E00E949E0089838981882352
:1003B00009F46AC080E073C06EE170E080E090E014
:1003C0000E94530264E081E00E949E00898389813B
:1003D000882309F45BC080E062C064E080E00E9492
:1003E0009E0089838981811111C06EE170E080E0F7
:1003F00090E00E94530264E080E00E949E008983A6
:100400008981882309F444C080E049C06EE170E02E
:1004100080E090E00E94530264E080E00E949E0031
:10042000898389818823B1F180E039C068E080E068
:100430000E949E0089838981811110C06EE170E065
:1004400080E090E00E94530268E080E00E949E00FD
:1004500089838981882301F180E021C06EE170E009
:1004600080E090E00E94530268E080E00E949E00DD
:1004700089838981882391F080E011C08FEF0FC0BC
:1004800082E00DC082E00BC082E009C082E007C0BC
:1004900082E005C082E003C082E001C082E00F90EC
:1004A000DF91CF910895CF92DF92EF92FF92CF9399
:1004B000DF9300D000D0CDB7DEB76B017C0119828D
:1004C0001A821B821C82672B682B692BC9F41EC001
:1004D00089819A81AB81BC810196A11DB11D89835F
:1004E0009A83AB83BC832150310991F74F5F5F4FF3
:1004F0006F4F7F4FC416D506E606F70621F406C0F7
:1005000040E050E0BA0129E431E0E2CF0F900F90D3
:100510000F900F90DF91CF91FF90EF90DF90CF90F1
:100520000895EF920F9393B7892B83BF83B7682BFE
:1005300063BF409361004093600022BF0CBF89B746
:10054000E82AE9BE0F91EF90089593B7809161007A
:10055000892B83BF08951F920F920FB60F9211241B
:100560002F933F934F935F936F937F938F939F93BB
:10057000AF93BF93EF93FF938091620090916300DC
:10058000019690936300809362002091640025306F
:1005900011F410926400883A9240B9F480E00E940D
:1005A0008A018093660080916600823029F48091F0
:1005B00065008F5F80936500809164008F5F8093FA
:1005C0006400109263001092620086E082BFFF9187
:1005D000EF91BF91AF919F918F917F916F915F91BB
:1005E0004F913F912F910F900FBE0F901F90189534
:0405F000F894FFCFAD
:00000001FF
