S01700004750494F5F52455131325F524551392E73726563B4
S11300000C942A000C943C000C943C000C943C008E
S11300100C943C000C943C000C943C000C943C006C
S11300200C943C000C943C000C943C000C944D014A
S11300300C943C000C943C000C943C000C943C004C
S11300400C943C000C943C000C943C000C943C003C
S11300500C943C0011241FBECFE5D8E0DEBFCDBF19
S113006020E0A0E6B0E001C01D92A536B207E1F79A
S11300700E941B010C947E010C94000041111CC0D1
S1130080813059F028F0823069F0833081F008958E
S11300908AB3609568236ABB089587B36095682323
S11300A067BB089584B36095682364BB089581B3E6
S11300B06095682361BB08954F3FB9F4813051F0D6
S11300C028F0823059F0833069F008958AB3682BA0
S11300D06ABB089587B3682B67BB089584B3682B04
S11300E064BB089581B3682B61BB0895813071F0BE
S11300F028F0823099F08330C9F008958BB3962F9D
S1130100909589234623482B4BBB089588B3962F9B
S1130110909589234623482B48BB089585B3962F91
S1130120909589234623482B45BB089582B3962F87
S1130130909589234623482B42BB0895813061F072
S113014028F0823079F0833099F008954FEF60E120
S113015081E00E943E0008954FEF60E281E00E943A
S11301603E0008954FEF60E481E00E943E00089550
S11301704FEF60E881E00E943E000895813061F015
S113018028F0823079F0833099F008954FEF60E1E0
S113019081E00E94760008954FEF60E281E00E94C2
S11301A0760008954FEF60E481E00E9476000895A0
S11301B04FEF60E881E00E9476000895813061F09D
S11301C028F0823079F0833099F0089540E060E1BE
S11301D081E00E947600089540E060E281E00E94A0
S11301E07600089540E060E481E00E94760008957E
S11301F040E060E881E00E94760008958091640008
S1130200813059F018F0823079F0089582E00E942C
S1130210DE0081E00E94BE00089581E00E94DE00BD
S113022083E00E94BE00089583E00E94DE0082E025
S11302300E94BE00089581E00E949E0082E00E9418
S11302409E0083E00E949E00EE24E39400E026E0FA
S113025042E060E080E00E9433010E94470178940C
S11302600E94FE00FDCFEF920F9393B7892B83BFBB
S113027083B7682B63BF409361004093600022BF43
S11302800CBF89B7E82AE9BE0F91EF90089593B7A0
S113029080916100892B83BF08951F920F920FB63E
S11302A00F9211242F938F939F93809162009091CA
S11302B063000196909363008093620086E082BF9E
S11302C08091620090916300803A9F4079F410928B
S11302D0630010926200809164008F5F80936400D9
S11302E080916400833011F4109264009F918F9187
S11302F02F910F900FBE0F901F901895F894FFCF79
S9030000FC
