S01200004750494F5F52455131332E7372656338
S11300000C942A000C9447000C9447000C9447006D
S11300100C9447000C9447000C9447000C94470040
S11300200C9447000C9447000C9447000C94C802AD
S11300300C9447000C9447000C9447000C94470020
S11300400C9447000C9447000C9447000C94470010
S11300500C94470011241FBECFE5D8E0DEBFCDBF0E
S113006010E0A0E6B0E0E4E3F6E002C005900D92F3
S1130070A236B107D9F720E0A2E6B0E001C01D9294
S1130080A736B207E1F70E9453010C9418030C94AD
S1130090000041111CC0813059F028F0823069F011
S11300A0833081F008958AB3609568236ABB08950C
S11300B087B36095682367BB089584B3609568230C
S11300C064BB089581B36095682361BB08954F3F75
S11300D0B9F4813051F028F0823059F0833069F05E
S11300E008958AB3682B6ABB089587B3682B67BBEE
S11300F0089584B3682B64BB089581B3682B61BBF6
S11301000895813071F028F0823099F08330C9F07D
S113011008958BB3962F909589234623482B4BBB88
S1130120089588B3962F909589234623482B48BB7E
S1130130089585B3962F909589234623482B45BB74
S1130140089582B3962F909589234623482B42BB6A
S11301500895813049F028F0823049F0833051F01D
S11301600CC089B368230AC086B3682307C083B36D
S1130170682304C080B3682301C06FEF81E061117C
S113018001C080E081950895813061F028F08230CB
S113019079F0833099F008954FEF60E181E00E9497
S11301A0490008954FEF60E281E00E9449000895FC
S11301B04FEF60E481E00E94490008954FEF60E84A
S11301C081E00E9449000895813061F028F0823076
S11301D079F0833099F008954FEF60E181E00E9457
S11301E0810008954FEF60E281E00E94810008954C
S11301F04FEF60E481E00E94810008954FEF60E8D2
S113020081E00E9481000895813061F028F08230FD
S113021079F0833099F0089540E060E181E00E9434
S11302208100089540E060E281E00E948100089529
S113023040E060E481E00E948100089540E060E8CD
S113024081E00E948100089580916600813081F0F0
S113025018F08230E1F0089582E00E94040181E008
S11302600E94E40080E00E94A7018093600008954A
S113027081E00E94040182E00E94040183E00E9464
S1130280E40080E00E94A70180936000089583E069
S11302900E94040182E00E94E40080E00E94A70121
S11302A080936000089581E00E94C40080E00E9471
S11302B0C40082E00E94C40083E00E94C400EE24D3
S11302C0E39400E026E042E060E080E00E94AE02B9
S11302D00E94C20280E00E9473018FB780688FBFC2
S11302E00E942401FDCF813089F028F08230C9F0CA
S11302F0833011F1089540E060E182E00E944900FA
S11303004FEF60E182E00E948100089540E064E0E4
S113031081E00E9449004FEF64E081E00E94810087
S1130320089540E064E080E00E9449004FEF64E0FB
S113033080E00E948100089540E068E080E00E942F
S113034049004FEF68E080E00E9481000895CF9358
S1130350DF931F92CDB7DEB7813091F138F0823050
S113036009F458C0833009F47EC0A5C060E182E07E
S11303700E94A90089838981811111C08BE49DE1C8
S11303800197F1F700C0000060E182E00E94A9003B
S113039089838981882309F490C080E09DC08BE41F
S11303A09DE10197F1F700C0000060E182E00E9446
S11303B0A90089838981882309F481C080E08CC0E5
S11303C064E081E00E94A90089838981811111C0C0
S11303D06EE170E080E090E00E94700264E081E0F1
S11303E00E94A90089838981882309F46AC080E076
S11303F073C06EE170E080E090E00E94700264E0FF
S113040081E00E94A90089838981882309F45BC063
S113041080E062C064E080E00E94A9008983898151
S1130420811111C06EE170E080E090E00E947002E2
S113043064E080E00E94A90089838981882309F40B
S113044044C080E049C06EE170E080E090E00E942A
S1130450700264E080E00E94A90089838981882376
S1130460B1F180E039C068E080E00E94A90089838E
S11304708981811110C06EE170E080E090E00E94FB
S1130480700268E080E00E94A90089838981882342
S113049001F180E021C06EE170E080E090E00E9414
S11304A0700268E080E00E94A90089838981882322
S11304B091F080E011C08FEF0FC082E00DC082E0A8
S11304C00BC082E009C082E007C082E005C082E080
S11304D003C082E001C082E00F90DF91CF910895C4
S11304E0CF92DF92EF92FF92CF93DF9300D000D0B0
S11304F0CDB7DEB76B017C0119821A821B821C8284
S1130500672B682B692BC9F41EC089819A81AB8142
S1130510BC810196A11DB11D89839A83AB83BC83E1
S11305202150310991F74F5F5F4F6F4F7F4FC416D2
S1130530D506E606F70621F406C040E050E0BA010D
S113054029E431E0E2CF0F900F900F900F90DF91EC
S1130550CF91FF90EF90DF90CF900895EF920F939B
S113056093B7892B83BF83B7682B63BF4093630022
S11305704093620022BF0CBF89B7E82AE9BE0F91FD
S1130580EF90089593B780916300892B83BF0895FA
S11305901F920F920FB60F9211242F933F934F93F4
S11305A05F936F937F938F939F93AF93BF93EF93D7
S11305B0FF9380916400909165000196909365008B
S11305C08093640020916000223069F480E00E94EE
S11305D0A7018230D9F381E0809366001092650010
S11305E01092640012C0803A9F4079F41092650022
S11305F010926400809166008F5F80936600809102
S11306006600833011F41092660086E082BFFF9189
S1130610EF91BF91AF919F918F917F916F915F9176
S11306204F913F912F910F900FBE0F901F901895EF
S1070630F894FFCF68
S1050634FF00C1
S9030000FC
